:020000040800F2
:10000000180500205D020008330C0008A50B00084D
:10001000310C000869030008050D0008000000000D
:100020000000000000000000000000009D0100082A
:100030006B03000800000000F9010008350C0008FF
:1000400077020008770200087702000877020008AC
:10005000770200087702000877020008770200089C
:10006000770200087702000877020008770200088C
:10007000770200087702000877020008770200087C
:10008000770200087702000877020008770200086C
:10009000770200087702000877020008770200085C
:1000A000770200087702000877020008770200084C
:1000B000770200087702000877020008770200083C
:1000C000770200087702000877020008770200082C
:1000D000770200087702000877020008770200081C
:1000E000770200087702000877020008770200080C
:1000F00077020008770200087702000877020008FC
:1001000077020008770200087702000877020008EB
:1001100077020008770200087702000877020008DB
:1001200077020008770200087702000877020008CB
:1001300077020008770200087702000877020008BB
:1001400077020008770200087702000877020008AB
:10015000770200087702000877020008770200089B
:10016000770200087702000877020008770200088B
:1001700077020008770200087702000800000000FC
:100180007702000877020008DFF80CD000F0DAF8F8
:1001900000480047450D0008180500202C4B196841
:1001A0000868B0E8F04F80F30988BFF36F8F4FF015
:1001B000000080F3118870470000000008480068C4
:1001C000006880F308884FF0000080F3148862B65E
:1001D00061B6BFF34F8FBFF36F8F00DF00BF00BF6B
:1001E00008ED00E0DFF80C00016841F470010160E7
:1001F000704700BF88ED00E0EFF30980BFF36F8F19
:10020000134B1A681EF0100F08BF20ED108A20E96A
:10021000F04F106009B44FF0500080F31188BFF325
:100220004F8FBFF36F8F00F0A3FD4FF0000080F3FE
:10023000118809BC19680868B0E8F04F1EF0100F6B
:1002400008BFB0EC108A80F30988BFF36F8F704746
:1002500010000020EFF3058070470000064880473B
:1002600006480047FEE7FEE7FEE7FEE7FEE7FEE79B
:10027000FEE7FEE7FEE7FEE7F50C0008890100084F
:100280002DE9F05F0546002092469B4688460646CB
:10029000814640241BE0284641464746224600F05E
:1002A00041F853465A46C01A914110D31146184698
:1002B000224600F028F82D1A67EB01084F46224627
:1002C0000120002100F01FF817EB00094E41201E0D
:1002D000A4F10104DFDC484631462A464346BDE826
:1002E000F09FD2B201E000F8012B491EFBD270470B
:1002F0000022F6E710B513460A4604461946FFF7F2
:10030000F0FF204610BD202A04DB203A00FA02F15B
:10031000002070479140C2F1200320FA03F31943F3
:1003200090407047202A04DB203A21FA02F0002195
:10033000704721FA02F3D040C2F1200291400843F5
:1003400019467047064C074D06E0E06840F001038F
:1003500094E8070098471034AC42F6D3FFF718FF33
:10036000140F0008340F0008FEE770472DE9F84F1E
:10037000DFF8BCA1002201250AF1040B03264FF08F
:100380000F090BF1040E00BF0B6805FA02F42340BD
:10039000A34270D10F7907F00307012F01D0022F7C
:1003A00016D187684FEA420806FA08FC27EA0C07CC
:1003B000D1F80CC00CFA08FC4CEA070CC0F808C0D5
:1003C0004768A7430C79C4F3001494403C4344604D
:1003D0000C79E443A4070AD0C4684FEA420C06FA39
:1003E0000CF7BC438F6807FA0CF72743C7600C79FA
:1003F00004F00304022C12D1D40800EB840CDCF8C6
:1004000020405707FF0E09FA07F824EA0804D1F83C
:10041000108008FA07F848EA0408CCF8208004683D
:100420004FEA420C06FA0CF7BC430F7907F00307BA
:1004300007FA0CF7274307604C6814F4403F70D06C
:100440003C4C276847F480472760246822F0030764
:1004500004F480440094384C07EB040CDCF80848A2
:1004600097074FEA177809FA08F7BC43334FB842A9
:1004700002D1002724E054E0314FB84201D10127D6
:100480001EE0304FB84201D1022719E02E4FB8428A
:1004900001D1032714E02D4FB84201D104270FE00A
:1004A0002B4FB84201D105270AE02A4FB84201D1AB
:1004B000062705E0284FB84201D1072700E00827AA
:1004C00007FA08F72743CCF80878DAF800405746CF
:1004D000D1F804C09C435FEACC3C00D51C433C608F
:1004E000DBF800405F46D1F804C09C435FEA8C3CD7
:1004F00000D51C433C60DEF800407746D1F804C0CC
:100500009C435FEACC2C00D51C433C60084F0C3761
:100510003C68D1F804C09C435FEA8C2C00D51C4396
:100520003C60521C102AFFF42FAFBDE8F88F00008A
:10053000003C0140443802400030014000000240CD
:100540000004024000080240000C0240001002407B
:100550000014024000180240001C02400AB18161F0
:1005600070470904FBE700000148806870470000FD
:10057000000000200B4810B5016841F400710160D3
:10058000016841F480610160016841F4807101609B
:10059000032000F061F8002000F006F800F024F8D5
:1005A000002010BD003C024070B50D4D04464FF4D4
:1005B0007A712878B1FBF0F00A490968B1FBF0F0D4
:1005C00000F0DCFA48B9102C07D200222146501E58
:1005D00000F022F800206C6070BD012070BD0000AA
:1005E000000000200C0000200A4808B5016841F412
:1005F00080410160006800F4804000900548001FC1
:10060000016841F080510160006800F08050009066
:1006100008BD000044380240F0B40E4B1B680C4685
:10062000C3F30223C3F10705042D00D90425191DC6
:10063000072901D2002300E0DB1E012606FA05F19E
:10064000491E214099409E40761E16403143F0BC21
:1006500000F059BB0CED00E0064900F00702086805
:100660004FF6FF03184040EA0220034A1043086097
:10067000704700000CED00E00000FA052DE9F0479E
:100680000E46050065D0DFF81481D8F80000F7B2F7
:1006900000F00700B04207D288F80070D8F80000D8
:1006A00000F00700B04254D128683D4C810712D5B4
:1006B000400703D5206840F4E05020602878000708
:1006C00003D5206840F4604020602068A96820F0CD
:1006D000F000084320602878C0072DD030496868B2
:1006E0000839012812D0022813D0032811D0096834
:1006F000890700292DDA216821F0030101432160D7
:10070000FFF732FF814641F2883A0EE0096889031B
:10071000EFE709688901ECE7FFF726FFA0EB090185
:10072000514502D90320BDE8F0872068696800F0D0
:100730000C00B0EB810FEFD1D8F80010404601F06B
:100740000701B14207D90770006800F00700B04206
:1007500001D00120E7E72878400705D52068E9683F
:1007600020F4E050084320602878000706D5206870
:10077000296920F4604040EAC100206000F018F8C8
:100780002168084AC1F30311515CC840064908605A
:1007900006480068FFF708FF0020C4E7003C02405D
:1007A00008380240040F00080C000020040000205C
:1007B000154810B5006810F00C02144813D0411011
:1007C000042A0FD0082A0ED10F4C241F2268236858
:1007D00002F03F025B0207D52068C0F38810A0FB3F
:1007E000010106E0084610BD2168C1F38811A1FB94
:1007F00000010023FFF744FD2168C1F30141491CBA
:100800004900B0FBF1F010BD083802400024F400AC
:100810002DE9F84F04006ED02078DFF84C93C00724
:10082000A9F104054AD009F104000168C1F381016E
:10083000012908D00068C0F3810002280AD1D9F844
:100840000000400206D52868800337D5606800287C
:10085000E1D033E06068B0F5803F10D0B0F5A02F54
:10086000286810D020F480302860286820F4802088
:1008700028606068A8B1FFF777FE06460DE028689B
:1008800040F48030F4E740F480202860F7E700BFB0
:10089000FFF76AFE801B642873D828688003F7D5A9
:1008A0000CE0FFF761FE064605E000BFFFF75CFEC7
:1008B000801B6428F0D828688003F7D42078DFF8FC
:1008C000AC8280074FF0000A3ED5A748001D0168A2
:1008D00011F00C0F08D00068C0F3810002280BD182
:1008E000D9F80000400207D42868800716D5E068D0
:1008F000012800D112E033E1E068B8B10120C8F866
:100900000000FFF731FE064605E000BFFFF72CFEB2
:10091000801B0228C0D828688007F7D5286821697D
:1009200020F0F80040EAC10028600DE0C8F800A0FF
:10093000FFF71AFE064604E0FFF716FE801B0228AA
:100940001FD828688007F7D42078000722D5864F63
:1009500087486169703771B101210160FFF704FEBA
:10096000064604E0FFF700FE801B022809D838681D
:100970008007F7D50EE0C0F800A0FFF7F5FD0646AA
:1009800005E082E0FFF7F0FD801B02287DD8386883
:100990008007F7D42078400768D5DFF8CCB100276E
:1009A0000BF13C0BDBF80000C0000BD4DBF80010AF
:1009B00041F08051CBF80010DBF80000012700F077
:1009C000805000906B4E3068C00510D4306840F401
:1009D00080703060FFF7C8FD009005E0FFF7C4FDB0
:1009E0000099401A022850D83068C005F6D55E4EEE
:1009F000A0686C3601280FD00528306810D020F090
:100A000001003060306820F004003060A068B8B1A8
:100A1000FFF7AAFD00900FE0306840F00100F4E716
:100A200040F004003060F7E7FFF79EFD0099411A9F
:100A300041F28830814266D830688007F4D50EE0F4
:100A4000FFF792FD009007E0FFF78EFD0099411A35
:100A500041F28830814256D830688007F4D42FB1F3
:100A6000DBF8001021F08051CBF80010A069C8B36A
:100A70003D49091D0968C1F3810102294AD00228B4
:100A8000504607D0C8F8600000E03CE0FFF76CFD7E
:100A900004463BE04746C8F86000FFF765FD0646A0
:100AA00005E000BFFFF760FD801B02282BD82868F7
:100AB0008001F7D4D4E907010843A16A2E4A490806
:100AC00002EB0141626A41EA8211084394F82C105A
:100AD00040EA0161C9F8001001203866FFF744FDC3
:100AE000044606E03EE000BFFFF73EFD001B022883
:100AF00009D828688001F7D534E000BFFFF734FD3E
:100B0000001B022802D90320BDE8F88F2868800165
:100B1000F4D427E00128F7D0D9F80000E26900F406
:100B2000800191421CD1226A00F03F01914217D10D
:100B300047F6C071626A0140B1EB821F10D1A26A10
:100B40004FF0FF3300F4403103EB5202B1EB024FA0
:100B500006D194F82C1000F07060B0EB016F01D05A
:100B60000120D1E70020CFE70438024000004742CF
:100B7000800E4742007000400000FFFF10B5401E8D
:100B8000B0F1807F01D3012010BD4FF0E0246061FF
:100B90000F21601700F0B7F80020A0610720206146
:100BA000002010BDFEE7000070B586B01421684635
:100BB000FFF79EFB1B480024016841F01001016013
:100BC000016801F010010591016841F080010160A8
:100BD000016801F080010591016841F001010160A7
:100BE0000068114E00F001000590002240213046BF
:100BF000FFF7B4FC012280213046FFF7AFFC18203C
:100C000001258DE8310069460848FFF7AFFBC02099
:100C10000090CDE90154694630460394FFF7A6FBE6
:100C200006B070BD303802400000024000100240A3
:100C3000FEE7FEE710B5502080F31188BFF34F8F19
:100C4000BFF36F8F00F0C2F818B104494FF0805025
:100C50000860002080F3118810BD000004ED00E062
:100C600030B593B030216846FFF742FB14210CA841
:100C7000FFF73EFB1D480025016841F080510160EF
:100C8000006800F0805011901948016841F48041DB
:100C900001600068022400F480401190012000905F
:100CA000000401908001CDE9064008AA0420A82193
:100CB00082E813000B906846FFF7AAFD08B172B6F0
:100CC000FEE70CA90F2081E831004FF4A0500F90EF
:100CD0004FF48050109005210CA8FFF7CFFC00289E
:100CE00001D072B6FEE713B030BD000040380240BC
:100CF000007000400248016841F4700101607047D3
:100D000088ED00E0FEE70907090E002804DB00F18A
:100D1000E02080F80014704700F00F0000F1E020A0
:100D200080F8141D704702E008C8121F08C1002A8D
:100D3000FAD170477047002001E001C1121F002A5C
:100D4000FBD17047FFF716FCFFF78AFFFFF72CFF78
:100D5000FEE700000548816B096821B1816BC96815
:100D60000968816270474FF0FF31FAE710000020F8
:100D70001448416B11B10121C16170470021C1616B
:100D80000169B1FA81F1C1F11F0101EB81020E4944
:100D900051F822306BB101EB820101F108034A687E
:100DA00052684A609A4201D152684A60D168016033
:100DB0007047502080F31188BFF34F8FBFF36F8FC0
:100DC000FEE7000010000020500000202DE9F04157
:100DD0004A4C0026606B28B1A069401CA0613046D7
:100DE000BDE8F081E5686D1CE56013D1A06B00687B
:100DF00038B1502080F31188BFF34F8FBFF36F8F4E
:100E0000FEE7A06BE16BA163E063206A401C2062F7
:100E1000FFF7A0FFA16A3A488D420FD34FF0000EB2
:100E2000A16B096839B1A16BC968C9684A68954264
:100E300012D2A26202E04FF0FF31A1622168C96ABA
:100E400001EB810150F82100012800D90126E06959
:100E50000028C4D00126C2E7D1E902724B69BA600A
:100E6000D1E902277A605F680A1D974201D1CF68F5
:100E70005F60C1F814E01F687F1E1F60D1F828C0B2
:100E8000BCF1000F15D0D1E907379F60D1E90737D2
:100E90007B60DCF8047001F118039F4202D10B6AF9
:100EA000CCF80430C1F828E0DCF800305B1ECCF848
:100EB0000030CB6A0127D4F810C09F4047EA0C07E6
:100EC000276103EB830300EB83035B688B609F6800
:100ED000CF609F687A609A60CA6A02EB820200EB78
:100EE00082034B6150F822305B1C40F82230C96A03
:100EF0002268D26A914293D9012691E7100000201E
:100F00005000002000000000000000000102030467
:100F100006070809340F00080000002050000000F8
:100F2000260D0008840F000850000020C8040000AF
:100F3000360D000801000000100000000000000055
:100F40000024F40000000000000000000000000089
:100F50000000000000000000000000000000000091
:100F60000000000000000000000000000000000081
:100F7000000000000400000000000000000000006D
:040F8000000000006D
:040000050800018965
:00000001FF
