:020000040800F2
:10000000C80500105D020008570C0008C90B000865
:10001000550C00088D030008290D000800000000A1
:100020000000000000000000000000009D0100082A
:100030008F03000800000000F9010008590C0008B7
:1000400077020008770200087702000877020008AC
:10005000770200087702000877020008770200089C
:10006000770200087702000877020008770200088C
:10007000770200087702000877020008770200087C
:10008000770200087702000877020008770200086C
:10009000770200087702000877020008770200085C
:1000A000770200087702000877020008770200084C
:1000B000770200087702000877020008770200083C
:1000C000770200087702000877020008770200082C
:1000D000770200087702000877020008770200081C
:1000E000770200087702000877020008770200080C
:1000F00077020008770200087702000877020008FC
:1001000077020008770200087702000877020008EB
:1001100077020008770200087702000877020008DB
:1001200077020008770200087702000877020008CB
:1001300077020008770200087702000877020008BB
:1001400077020008770200087702000877020008AB
:10015000770200087702000877020008770200089B
:10016000770200087702000877020008770200088B
:1001700077020008770200087702000800000000FC
:100180007702000877020008DFF80CD000F0ECF8E6
:10019000004800479D0D0008C80500102C4B196849
:1001A0000868B0E8F04F80F30988BFF36F8F4FF015
:1001B000000080F3118870470000000008480068C4
:1001C000006880F308884FF0000080F3148862B65E
:1001D00061B6BFF34F8FBFF36F8F00DF00BF00BF6B
:1001E00008ED00E0DFF80C00016841F470010160E7
:1001F000704700BF88ED00E0EFF30980BFF36F8F19
:10020000134B1A681EF0100F08BF20ED108A20E96A
:10021000F04F106009B44FF0500080F31188BFF325
:100220004F8FBFF36F8F01F005FC4FF0000080F39C
:10023000118809BC19680868B0E8F04F1EF0100F6B
:1002400008BFB0EC108A80F30988BFF36F8F704746
:100250001C000010EFF3058070470000064880473F
:1002600006480047FEE7FEE7FEE7FEE7FEE7FEE79B
:10027000FEE7FEE7FEE7FEE7190D0008890100082A
:100280002DE9F05F0546002092469B4688460646CB
:10029000814640241BE0284641464746224600F05E
:1002A00053F853465A46C01A914110D31146184686
:1002B000224600F03AF82D1A67EB01084F46224615
:1002C0000120002100F031F817EB00094E41201EFB
:1002D000A4F10104DFDC484631462A464346BDE826
:1002E000F09F40EA01039B0703D009E008C9121FF1
:1002F00008C0042AFAD203E011F8013B00F8013BE0
:10030000521EF9D27047D2B201E000F8012B491E0B
:10031000FBD270470022F6E710B513460A460446A2
:100320001946FFF7F0FF204610BD202A04DB203AD3
:1003300000FA02F1002070479140C2F1200320FA38
:1003400003F3194390407047202A04DB203A21FA36
:1003500002F00021704721FA02F3D040C2F12002DE
:100360009140084319467047064C074D06E0E06887
:1003700040F0010394E8070098471034AC42F6D3EC
:10038000FFF706FF6822000898220008FEE7704782
:100390002DE9F84FDFF8BCA1002201250AF1040B7A
:1003A00003264FF00F090BF1040E00BF0B6805FA8E
:1003B00002F42340A34270D10F7907F00307012F05
:1003C00001D0022F16D187684FEA420806FA08FCCE
:1003D00027EA0C07D1F80CC00CFA08FC4CEA070C11
:1003E000C0F808C04768A7430C79C4F300149440D0
:1003F0003C4344600C79E443A4070AD0C4684FEA44
:10040000420C06FA0CF7BC438F6807FA0CF7274337
:10041000C7600C7904F00304022C12D1D40800EB5D
:10042000840CDCF820405707FF0E09FA07F824EA8D
:100430000804D1F8108008FA07F848EA0408CCF854
:10044000208004684FEA420C06FA0CF7BC430F798F
:1004500007F0030707FA0CF7274307604C6814F40A
:10046000403F70D03C4C276847F4804727602468A1
:1004700022F0030704F480440094384C07EB040C8A
:10048000DCF8084897074FEA177809FA08F7BC43E1
:10049000334FB84202D1002724E054E0314FB84234
:1004A00001D101271EE0304FB84201D1022719E0E7
:1004B0002E4FB84201D1032714E02D4FB84201D18D
:1004C00004270FE02B4FB84201D105270AE02A4F3D
:1004D000B84201D1062705E0284FB84201D10727CD
:1004E00000E0082707FA08F72743CCF80878DAF87D
:1004F00000405746D1F804C09C435FEACC3C00D58D
:100500001C433C60DBF800405F46D1F804C09C43CC
:100510005FEA8C3C00D51C433C60DEF80040774627
:10052000D1F804C09C435FEACC2C00D51C433C604E
:10053000084F0C373C68D1F804C09C435FEA8C2C10
:1005400000D51C433C60521C102AFFF42FAFBDE8BD
:10055000F88F0000003C0140443802400030014068
:10056000000002400004024000080240000C02406B
:10057000001002400014024000180240001C02401B
:100580000AB1816170470904FBE7000001488068F7
:10059000704700000C0000100B4810B5016841F4D2
:1005A00000710160016841F480610160016841F4FB
:1005B00080710160032000F061F8002000F006F86F
:1005C00000F024F8002010BD003C024070B50D4D35
:1005D00004464FF47A712878B1FBF0F00A490968B3
:1005E000B1FBF0F000F0DCFA48B9102C07D2002281
:1005F0002146501E00F022F800206C6070BD0120E2
:1006000070BD00000C000010180000100A4808B56A
:10061000016841F480410160006800F4804000906E
:100620000548001F016841F080510160006800F03A
:100630008050009008BD000044380240F0B40E4BDA
:100640001B680C46C3F30223C3F10705042D00D930
:100650000425191D072901D2002300E0DB1E012615
:1006600006FA05F1491E214099409E40761E16402B
:100670003143F0BC00F059BB0CED00E0064900F03E
:10068000070208684FF6FF03184040EA0220034AB9
:1006900010430860704700000CED00E00000FA0510
:1006A0002DE9F0470E46050065D0DFF81481D8F833
:1006B0000000F7B200F00700B04207D288F80070DF
:1006C000D8F8000000F00700B04254D128683D4C33
:1006D000810712D5400703D5206840F4E050206020
:1006E0002878000703D5206840F460402060206827
:1006F000A96820F0F000084320602878C0072DD0BA
:10070000304968680839012812D0022813D003281C
:1007100011D00968890700292DDA216821F0030129
:1007200001432160FFF732FF814641F2883A0EE033
:1007300009688903EFE709688901ECE7FFF726FFFD
:10074000A0EB0901514502D90320BDE8F0872068DC
:10075000696800F00C00B0EB810FEFD1D8F8001001
:10076000404601F00701B14207D90770006800F068
:100770000700B04201D00120E7E72878400705D5FF
:100780002068E96820F4E0500843206028780007DA
:1007900006D52068296920F4604040EAC100206045
:1007A00000F018F82168084AC1F30311515CC840F1
:1007B0000649086006480068FFF708FF0020C4E704
:1007C000003C02400838024058220008180000107F
:1007D00010000010154810B5006810F00C02144805
:1007E00013D04110042A0FD0082A0ED10F4C241F19
:1007F0002268236802F03F025B0207D52068C0F33D
:100800008810A0FB010106E0084610BD2168C1F375
:100810008811A1FB00010023FFF732FD2168C1F31D
:100820000141491C4900B0FBF1F010BD08380240FD
:100830000024F4002DE9F84F04006ED02078DFF892
:100840004C93C007A9F104054AD009F104000168DE
:10085000C1F38101012908D00068C0F3810002289A
:100860000AD1D9F80000400206D52868800337D5A0
:1008700060680028E1D033E06068B0F5803F10D0B8
:10088000B0F5A02F286810D020F4803028602868A8
:1008900020F4802028606068A8B1FFF777FE064644
:1008A0000DE0286840F48030F4E740F480202860B0
:1008B000F7E700BFFFF76AFE801B642873D828683B
:1008C0008003F7D50CE0FFF761FE064605E000BFA8
:1008D000FFF75CFE801B6428F0D828688003F7D4FB
:1008E0002078DFF8AC8280074FF0000A3ED5A74899
:1008F000001D016811F00C0F08D00068C0F38100E2
:1009000002280BD1D9F80000400207D428688007DC
:1009100016D5E068012800D112E033E1E068B8B1F3
:100920000120C8F80000FFF731FE064605E000BFD1
:10093000FFF72CFE801B0228C0D828688007F7D557
:100940002868216920F0F80040EAC10028600DE025
:10095000C8F800A0FFF71AFE064604E0FFF716FEEF
:10096000801B02281FD828688007F7D4207800074A
:1009700022D5864F87486169703771B101210160C6
:10098000FFF704FE064604E0FFF700FE801B022886
:1009900009D838688007F7D50EE0C0F800A0FFF747
:1009A000F5FD064605E082E0FFF7F0FD801B02281A
:1009B0007DD838688007F7D42078400768D5DFF8FD
:1009C000CCB100270BF13C0BDBF80000C0000BD4CE
:1009D000DBF8001041F08051CBF80010DBF800008C
:1009E000012700F0805000906B4E3068C00510D495
:1009F000306840F480703060FFF7C8FD009005E07B
:100A0000FFF7C4FD0099401A022850D83068C0058D
:100A1000F6D55E4EA0686C3601280FD005283068E8
:100A200010D020F001003060306820F00400306009
:100A3000A068B8B1FFF7AAFD00900FE0306840F061
:100A40000100F4E740F004003060F7E7FFF79EFD97
:100A50000099411A41F28830814266D83068800797
:100A6000F4D50EE0FFF792FD009007E0FFF78EFD52
:100A70000099411A41F28830814256D83068800787
:100A8000F4D42FB1DBF8001021F08051CBF8001026
:100A9000A069C8B33D49091D0968C1F38101022954
:100AA0004AD00228504607D0C8F8600000E03CE079
:100AB000FFF76CFD04463BE04746C8F86000FFF7CF
:100AC00065FD064605E000BFFFF760FD801B0228BC
:100AD0002BD828688001F7D4D4E907010843A16A1C
:100AE0002E4A490802EB0141626A41EA8211084339
:100AF00094F82C1040EA0161C9F800100120386612
:100B0000FFF744FD044606E03EE000BFFFF73EFD70
:100B1000001B022809D828688001F7D534E000BFFF
:100B2000FFF734FD001B022802D90320BDE8F88F2F
:100B300028688001F4D427E00128F7D0D9F8000014
:100B4000E26900F4800191421CD1226A00F03F0169
:100B5000914217D147F6C071626A0140B1EB821F22
:100B600010D1A26A4FF0FF3300F4403103EB520280
:100B7000B1EB024F06D194F82C1000F07060B0EB8E
:100B8000016F01D00120D1E70020CFE704380240F7
:100B900000004742800E4742007000400000FFFF07
:100BA00010B5401EB0F1807F01D3012010BD4FF081
:100BB000E02460610F21601700F0B7F80020A06109
:100BC00007202061002010BDFEE7000070B586B050
:100BD00014216846FFF79EFB1B480024016841F082
:100BE00010010160016801F010010591016841F0F8
:100BF00080010160016801F080010591016841F008
:100C0000010101600068114E00F001000590002212
:100C100040213046FFF7B4FC002280213046FFF728
:100C2000AFFC182001258DE8310069460848FFF720
:100C3000AFFBC0200090CDE90154694630460394D3
:100C4000FFF7A6FB06B070BD30380240000002403E
:100C500000100240FEE7FEE710B5502080F3118837
:100C6000BFF34F8FBFF36F8F01F030F918B1044914
:100C70004FF080500860002080F3118810BD000004
:100C800004ED00E030B593B030216846FFF742FB39
:100C900014210CA8FFF73EFB1D480025016841F018
:100CA00080510160006800F080501190194801687F
:100CB00041F4804101600068022400F480401190FA
:100CC00001200090000401908001CDE9064008AAAF
:100CD0000420A82182E813000B906846FFF7AAFDC4
:100CE00008B172B6FEE70CA90F2081E831004FF47D
:100CF000A0500F904FF48050109005210CA8FFF7E2
:100D0000CFFC002801D072B6FEE713B030BD000062
:100D100040380240007000400248016841F4700110
:100D20000160704788ED00E0FEE70907090E002822
:100D300004DB00F1E02080F80014704700F00F00A1
:100D400000F1E02080F8141D704702E008C8121F6F
:100D500008C1002AFAD170477047002001E001C1A4
:100D6000121F002AFBD170471CB507490120CDE9AD
:100D700000010023802205A1074801F065F8BDE8C5
:100D80001C4000F017BE0000000000107374617278
:100D9000745F7461736B00006515000810B5FFF790
:100DA000FBFBFFF76FFFFFF711FFFFF7DDFF0020F1
:100DB00010BD00002DE9F0411E4C0F460546E668C7
:100DC0002068001D00F022FC38B9206890F82C1033
:100DD00001208840216981432161681C15D1A7B198
:100DE000154922684868906023688268DA60226842
:100DF0008368121D5A602268121D8260206841615A
:100E00000868401C0860BDE8F08120683544B542A0
:100E10004560216805D2E06BBDE8F041091D00F096
:100E200016BCA06B091D00F012FCA06A8542EAD234
:100E3000A562E8E71C0000108C0100102DE9F041CC
:100E4000054600F029FC364CA068401CA0602068D4
:100E5000344F10B1606940B32DE02560A0680128CF
:100E600029D1002606EB860007EB800000F0E1FBAD
:100E7000761C052EF6D32B48643000F0DAFB2948A7
:100E8000783000F0D6FB27488C3000F0D2FB2548A4
:100E9000A03000F0CEFB2348B43000F0CAFB21485C
:100EA0006430A0631430E06305E02068E96AC06A3A
:100EB000884200D82560606A401C60622864E96A44
:100EC0000120226988401043206101EB810007EB7B
:100ED00080004068A8608168E9608268291D5160CF
:100EE0008160E86A00EB800007EB8001696157F8D8
:100EF0002010491C47F8201000F0EEFB6069002824
:100F00000CD02068E96AC06A884207D206494FF0CF
:100F100080500860BFF34F8FBFF36F8FBDE8F08143
:100F20001C000010D800001004ED00E010B500F027
:100F3000B3FB0E4C2068A0B90D4800F07AFB0C48BA
:100F4000143000F076FB0A48E06014302061002283
:100F50000C210A2000F016FE206010B105A100F05F
:100F600013FCBDE8104000F0B7BB00005C000010AF
:100F7000A0010010546D72510000000030B4026CEA
:100F80000B46002A0BD0C1681144C1608468A1429D
:100F900001D30168C16030BC1846FFF7A2B930BC6C
:100FA000704710B50446006B00F0AAFB2046BDE870
:100FB000104000F0A5BB00000E484FF496314207E8
:100FC00006D0C01D0B4920F00700411AC1F596312B
:100FD000094A00230144C2E900030839143A21F008
:100FE000070111604B600B600B1AC0E9001393609E
:100FF000536070470000002090000010144E154C04
:10100000A6F1A0074FF08058DFF84C9012E000BF27
:1010100000F042FBF068C568281D00F0F7FAA068F0
:10102000401EA0606068401E606000F055FB2846CE
:10103000FFF7B7FF60680028EAD138680128F9D9BE
:10104000C9F80080BFF34F8FBFF36F8FF2E7000046
:10105000780100101C00001004ED00E02DE9F047BD
:101060000D46DDE909841746824691009946089E9F
:10107000A522206BFFF747F96FF00301206B01EB0E
:101080008701084420F00707780707D0502080F335
:101090001188BFF34F8FBFF36F8FFEE765B100205C
:1010A0002218295C82F83410295C11B1401C0A28EE
:1010B000F6D3002084F83D00052E07D3502080F39E
:1010C0001188BFF34F8FBFF36F8FFEE7E662201DDD
:1010D000A66400F0B9FA04F1180000F0B5FA246132
:1010E000C6F105006462A0614A465146384600F0E8
:1010F00023FA2060B8F1000F01D0C8F80040BDE825
:10110000F087000030B5114900E011460A688242BC
:10111000FBD34B685C18844203D140681844486094
:10112000084643681C18944209D1084C143C2468B2
:10113000A24209D052681A4442600A6812680260EA
:10114000814200D0086030BD0460F9E790000010D3
:1011500070B5002441600B4D0061914206D8D11A50
:101160008269914206D2011D286907E09A4203D2A2
:10117000994201D3012403E0011DE86800F067FAF9
:10118000204670BD5C00001010B5044600F084FAE3
:10119000A06B28B15FF0000400F09EFA204610BD5D
:1011A0000124F9E770B506460D480D46C068C068D1
:1011B000C468201D00F02AFA94F82800410705D5DC
:1011C0002A463146204600F0B5F803E000F0FE0064
:1011D00084F828002046216ABDE8704008470000D6
:1011E0005C0000107FB5374E63E00098002860DB9C
:1011F000029C606910B1201D00F008FA03A800F0FD
:10120000BBF8054600980A2853D2DFE800F05205E3
:1012100005282E460505282E94F828002A4640F079
:10122000010084F828000199A069019B014420462F
:10123000FFF78EFF40B394F82800410707D50198C7
:10124000A1692A460144204600F074F803E000F04A
:10125000FE0084F82800216A2046884729E014F817
:10126000280F00F0FE00207023E094F8280040F0E2
:10127000010084F828000198A06130B141192B4683
:101280001A462046FFF764FF13E0502080F31188D0
:10129000BFF34F8FBFF36F8FFEE794F828008107ED
:1012A00003D4204600F02CFA03E000F0FE0084F89E
:1012B000280000226946306800F0ECFC002894D138
:1012C0007FBD00005C000010F8B50D46064600F03A
:1012D000A9FB684600F050F80446009810B100F0F1
:1012E000FFFEF8BD1148ADB101690968D9B100250B
:1012F000311B2A46006800F06FFA00F0F1FE00286A
:10130000EFD10B494FF080500860BFF34F8FBFF310
:101310006F8FF8BDA642EBD800F0E2FE21463046C2
:10132000FFF740FFF8BD0125E2E700005C00001078
:1013300004ED00E070B516460C46054604E0A869C9
:10134000296A044428468847A86923460119324679
:101350002846FFF7FDFE0028F1D170BD0548816BDE
:10136000096821B1816BC9680968816270474FF0D3
:10137000FF31FAE71C0000102DE9F041064600F0AD
:101380009FFD0E4C0546A068854214D24FF0FF37F2
:1013900004E0C06839460068FFF704FFE0680168B0
:1013A0000029F6D12169C4E90310012030602846E4
:1013B000A560BDE8F0810020F8E700005C000010A7
:1013C00008484068401C4FF0500080F3118804D05A
:1013D000BFF34F8FBFF36F8FFEE7BFF34F8FBFF3A6
:1013E0006F8FFEE770000010074CE068016841B1A4
:1013F000C0680021D0F80000FFF766FFFFF7F2FE9B
:10140000F3E701210020F7E75C0000102DE9F0412F
:10141000044600F041F994F9455004F1240609E02E
:10142000606A48B1304600F0EDFD08B100F07CFA8A
:101430006D1E6DB2002DF3DC4FF0FF3684F8456071
:1014400000F04AF900F028F994F9445004F110072B
:1014500009E0206948B1384600F0D4FD08B100F039
:1014600063FA6D1E6DB2002DF3DC84F84460BDE8B4
:10147000F04100F031B9000070B50446002600F0DC
:10148000D1FA2C4D286808B9FFF796FD7CB304F01B
:101490000700C0F11000C1438C423DD8211800293B
:1014A0003ADD6868814237D8224814300246146811
:1014B00001E02046144662688A4202D22268002A6D
:1014C000F7D12A68944227D00668226802606068D3
:1014D0000836421A102A0FD96018430708D0502046
:1014E00080F31188BFF34F8FBFF36F8FFEE713E0D8
:1014F00042606160FFF706FE61686868401A6860D4
:10150000AA68904200D2A86041F0004060600020CC
:101510002060E868401CE86000F0E2FD700707D03A
:10152000502080F31188BFF34F8FBFF36F8FFEE71A
:10153000304670BD7C00001010B5031F4FF0807462
:101540001C601B1F21F001011960191F044B0B6067
:1015500014390A60091F6FF0020244380A6010BD96
:10156000C11300081CB50C480224CDE9004000233B
:1015700080220AA10B4800F067FC07480023001DE9
:10158000CDE90040802208A1094800F05DFCBDE8DB
:101590001C40002000F068B9040000107461736BF7
:1015A00031000000B51500087461736B3200000053
:1015B000E1150008094D4FF4FA7401224021284634
:1015C000FEF7DEFF204600F029F9002240212846E0
:1015D000FEF7D6FF204600F021F9EEE700000240BA
:1015E000094D4FF4FA74012280212846FEF7C8FF06
:1015F000204600F013F9002280212846FEF7C0FFA4
:10160000204600F00BF9EEE700000240D0E901327D
:1016100001699A60D0E901235A604A68824201D187
:1016200082684A60002202610868401E08600868FB
:10163000704700F108014FF0FF32C0E90112C160AC
:10164000016100210160704700210161704730B5E0
:101650000B685A1C02D000F1080202E0026904E0A3
:101660002246546825689D42FAD953684B609960B8
:101670008A60516008610168491C016030BD4268A0
:101680004A6093688B609368596091600861016853
:10169000491C016070470000502080F31188BFF39F
:1016A0004F8FBFF36F8F0A494868401C486001287C
:1016B0000CD10848006810F0FF0F07D0502080F3CD
:1016C0001188BFF34F8FBFF36F8FFEE770470000A5
:1016D0007000001004ED00E00849486828B1401E81
:1016E000486001D180F311887047502080F3118841
:1016F000BFF34F8FBFF36F8FFEE700007000001045
:1017000070B500282AD0A0F108046068002807DB23
:10171000502080F31188BFF34F8FBFF36F8FFEE728
:10172000216839B1502080F31188BFF34F8FBFF388
:101730006F8FFEE720F00040606000F073F9084D05
:1017400060686968084468602046FFF7DBFC286928
:10175000401C2861BDE8704000F0C2BC70BD0000B4
:101760007C0000104FF0E0200021016181610549FB
:101770004FF47A720968B1FBF2F1491E4161072109
:10178000016170471800001070B5002260B1002997
:101790001ED0104C002300BF04EBC3056E688642C8
:1017A0000AD104EBC3020FE0502080F31188BFF38D
:1017B0004F8FBFF36F8FFEE71AB954F8336006B945
:1017C0002A465B1C082BE7D3002A01D0C2E900108F
:1017D00070BD00009800001070B515460E46044616
:1017E000FFF75AFF94F944100020491C01D184F8F6
:1017F000440094F94510491C01D184F84500FFF7D5
:101800006BFFA06B28B92A46314604F1240000F092
:10181000A9F82046BDE87040FFF7F8BD10B50200FA
:1018200014D00F48406B38B1502080F31188BFF3BB
:101830004F8FBFF36F8FFEE700F0F4F800211046E2
:10184000FFF7B8FA00F04CFC002807D105494FF02B
:1018500080500860BFF34F8FBFF36F8F10BD000043
:101860001C00001004ED00E070B50546FFF714FF02
:10187000264C05B92568281DFFF7C8FE58B9E86A47
:10188000234A00EB800152F8211021B90121814047
:10189000206988432061A86A18B105F11800FFF794
:1018A000B5FE606A401C60622068854208D1184815
:1018B000291DA030FFF7E3FE6068401C606004E073
:1018C000A068401EA060FFF749FDFFF705FF2068F4
:1018D000854202D02846FFF764FB6069002814D0D7
:1018E0002068854211D1606B38B1502080F3118897
:1018F000BFF34F8FBFF36F8FFEE706494FF0805065
:101900000860BFF34F8FBFF36F8F70BD1C000010D6
:10191000D800001004ED00E002490A6A0260C968BC
:10192000416070471C00001001490120C8617047E8
:101930001C00001010B50C4650B109490968183157
:10194000FFF785FE2046BDE810400121FFF732BABF
:10195000502080F31188BFF34F8FBFF36F8FFEE7E6
:101960001C000010F0B40C46D0B1114943680D685A
:10197000EB619D680E6835620D689E68183575606C
:101980000D6818359D60096888620168491C01600E
:101990000AB14FF0FF342046F0BC1146FFF70ABAF7
:1019A000502080F31188BFF34F8FBFF36F8FFEE796
:1019B0001C0000107CB517480025CDE900502B46CF
:1019C000822215A1164800F03FFA124C2C3C012847
:1019D00003D100F01BFC012802D0401C11D00EE006
:1019E000502080F31188BFF34F8FBFF36F8F4FF0FC
:1019F000FF30A06201206061E56000F049F8206BD3
:101A00007CBD502080F31188BFF34F8FBFF36F8FE1
:101A1000FEE700004800001049444C45000000006B
:101A2000FD0F00080248416B491C416370470000EC
:101A30001C0000101448416B11B10121C1617047B5
:101A40000021C1610169B1FA81F1C1F11F0101EB0E
:101A500081020E4951F822306BB101EB820101F194
:101A600008034A6852684A609A4201D152684A6043
:101A7000D16801607047502080F31188BFF34F8F09
:101A8000BFF36F8FFEE700001C000010D8000010AD
:101A90001CB537480168374A914207D1502080F37E
:101AA0001188BFF34F8FBFF36F8FFEE70068314996
:101AB000491E884207D1502080F31188BFF34F8F11
:101AC000BFF36F8FFEE72C4908780190FF20087064
:101AD00008788DF800009DF800009DF8002000F0C7
:101AE000F000904207D0502080F31188BFF34F8F51
:101AF000BFF36F8FFEE79DF80000204C00F0500010
:101B000020700720A06005E09DF8002052008DF8AD
:101B10000020401E9DF800201206F5D4A060032886
:101B200007D0502080F31188BFF34F8FBFF36F8F22
:101B3000FEE74FF44070A060019808700C48203018
:101B4000016841F470010160016841F07041016079
:101B5000FFF708FE00206060FEF744FB08480168BC
:101B600041F040410160FEF729FB00201CBD000050
:101B700000ED00E071C20F4100E400E070000010D1
:101B800034EF00E02DE9F04117460E46050020D065
:101B90004FF0FF30B0FBF5F0B0421AD305FB06F072
:101BA00010F1510F15D85030FFF766FC04000CD02F
:101BB00004F150005EB12060C4E90F5620460121B7
:101BC00000F010F8204684F84C70BDE8F0812460E5
:101BD000F2E7502080F31188BFF34F8FBFF36F8F70
:101BE000FEE700002DE9F0410F4604004FF001062A
:101BF0002DD0E06B98B3B51EB5FBF0F1206C81429F
:101C00003ED3FFF749FDD4E90F20216802FB001104
:101C1000A1600021A163216861600A46D4E90F0137
:101C2000401E00FB01212046E16000F8445F457042
:101C300004F11000A7B1FFF7FCFC04F12400FFF74A
:101C4000F8FC00BFFFF748FD3046BDE8F0815020AA
:101C500080F31188BFF34F8FBFF36F8FFEE70FE064
:101C600021690029EED000F0CDF90028EAD008491A
:101C70004FF080500860BFF34F8FBFF36F8FE1E7E5
:101C8000502080F31188BFF34F8FBFF36F8FFEE7B3
:101C900004ED00E02DE9F747002683B08A460400F2
:101CA00003D0BAF1000F08D011E0502080F3118862
:101CB000BFF34F8FBFF36F8FFEE7206C38B150201A
:101CC00080F31188BFF34F8FBFF36F8FFEE700F0F3
:101CD000E9F8DFF8F4804FF000094FF0805748B979
:101CE000059838B1502080F31188BFF34F8FBFF3B0
:101CF0006F8FFEE7FFF7D0FCA56BC5B151462046BC
:101D0000FFF73CF96D1EA563206950B104F1100086
:101D100000F078F928B1C8F80070BFF34F8FBFF317
:101D20006F8FFFF7D9FC012006B0BDE8F08705985A
:101D300008B11EB106E0FFF7CFFC27E06846FFF7C9
:101D4000EBFD0126FFF7C8FCFFF76CFEFFF7A4FCD4
:101D500094F94400401C01D184F8449094F9450062
:101D6000401C01D184F84590FFF7B6FC05A96846F0
:101D700000F02CF8002820460AD0FFF747FB00F0BF
:101D8000AFF92046FFF700FA0028B3D00020CBE7D8
:101D9000FFF7FAF990B104F124000599FFF7CAFDA5
:101DA0002046FFF733FB00F09BF90028A2D1C8F8CA
:101DB0000070BFF34F8FBFF36F8F9BE72046FFF795
:101DC00025FB00F08DF995E704ED00E02DE9F041E9
:101DD0000C46050014D0DCB1FFF75EFC194EF2682A
:101DE0006B682068D11A471C1AD02F68D6F820C01B
:101DF0000026674516D0934214D8012526601BE0C3
:101E0000502080F31188BFF34F8FBFF36F8FFEE731
:101E1000502080F31188BFF34F8FBFF36F8FFEE721
:101E2000002509E0884205D9401A20602846FFF7BE
:101E300073FDF5E701252660FFF74EFC2846BDE857
:101E4000F08100001C0000102DE9FF5F8346DDE9F2
:101E50000E87994616468A469000FFF70DFB05004F
:101E60001DD05820FFF708FB040015D05821FEF7BD
:101E700051FA25630021CDE90241CDE900874B46A7
:101E8000324651465846FFF7E9F82046FEF7D6FF9E
:101E9000012004B0BDE8F09F2846FFF731FC4FF069
:101EA000FF30F6E70548416919B1406B18B10020D1
:101EB0007047012070470220704700001C0000108E
:101EC0000148C068704700001C0000102DE9F04177
:101ED0004A4C0026606B28B1A069401CA0613046C6
:101EE000BDE8F081E5686D1CE56013D1A06B00686A
:101EF00038B1502080F31188BFF34F8FBFF36F8F3D
:101F0000FEE7A06BE16BA163E063206A401C2062E6
:101F1000FFF724FAA16A3A488D420FD34FF0000E22
:101F2000A16B096839B1A16BC968C9684A68954253
:101F300012D2A26202E04FF0FF31A1622168C96AA9
:101F400001EB810150F82100012800D90126E06948
:101F50000028C4D00126C2E7D1E902724B69BA60F9
:101F6000D1E902277A605F680A1D974201D1CF68E4
:101F70005F60C1F814E01F687F1E1F60D1F828C0A1
:101F8000BCF1000F15D0D1E907379F60D1E90737C1
:101F90007B60DCF8047001F118039F4202D10B6AE8
:101FA000CCF80430C1F828E0DCF800305B1ECCF837
:101FB0000030CB6A0127D4F810C09F4047EA0C07D5
:101FC000276103EB830300EB83035B688B609F68EF
:101FD000CF609F687A609A60CA6A02EB820200EB67
:101FE00082034B6150F822305B1C40F82230C96AF2
:101FF0002268D26A914293D9012691E71C00001011
:10200000D800001070B5C068C06850B3D0E907327E
:10201000816A9A60D0E907235A604A6800F1180380
:102020009A4201D1026A4A60002585620A68521EFE
:102030000A6029494A6B0124DAB1284D6A68C261F5
:102040009668066296687360936085622A68521C7F
:102050002A60C06A0A68D26A90423AD90120CC61EB
:1020600070BD502080F31188BFF34F8FBFF36F8F87
:10207000FEE7D0E902634269B360D0E902367360DB
:102080005668031D9E4201D1C668566045611568B9
:102090006D1E1560C26A0E6904FA02F535430D61C2
:1020A0000E4D02EB82028C3D05EB8202526882608B
:1020B0009668C660966873609360C26A02EB82029B
:1020C00005EB8203436155F822305B1C45F8223052
:1020D000BFE7002070BD00001C000010640100106C
:1020E0002DE9F041464D00242746686B38B1FFF7D3
:1020F000D3FA686B401E6863686B40B17AE0502089
:1021000080F31188BFF34F8FBFF36F8FFEE7A8688E
:102110003C4B00264FF00108F0BB6BE0D868C46868
:10212000D4E90721A06A9160D4E90712516042689E
:1021300004F118018A4201D1216A4160A662016856
:10214000491E0160D4E9022160699160D4E902125C
:1021500051604268211D8A4201D1E2684260666195
:102160000268521E0260E26AD5F810C008FA02F056
:1021700040EA0C00286102EB8200224A8C3A02EB12
:1021800080004068A060D0F808C0C4F80CC0D0F847
:1021900008C0CCF8041000E012E08160E06A00EBB7
:1021A000800002EB8001616152F82010491C42F866
:1021B0002010E06A2968C96A884201D3C5F81C80EA
:1021C00018680028AAD10CB1FFF7C8F8AC693CB177
:1021D000FFF77CFE08B1C5F81C80641EF8D1AE6123
:1021E000E86938B10849012738070860BFF34F8F05
:1021F000BFF36F8FFFF770FA3846BDE8F08100003B
:102200001C0000106401001004ED00E01CB5FEF796
:102210008DFE0D48006868B10B490220091DCDE90B
:10222000000100234FF4827208A10A48FFF70CFE58
:10223000002807D1502080F31188BFF34F8FBFF3E0
:102240006F8FFEE71CBD00005C000010546D722013
:1022500053766300E913000800000000000000004E
:102260000102030406070809982200080000001074
:10227000980000004A0D0008982200080000002085
:10228000002C01005A0D00083023000898000010AF
:10229000300500005A0D000800000000000000009A
:1022A000000000000100000010000000000000001D
:1022B0000024F40000000000000000000000000006
:1022C000000000000000000000000000000000000E
:1022D00000000000000000000000000000000000FE
:1022E00000000000040000000000000000000000EA
:1022F00000000000000000000000000000000000DE
:10230000000000000000000000000000AAAAAAAA25
:1023100000000000000000000000000000000000BD
:1023200000000000000000000000000000000000AD
:040000050800018965
:00000001FF
