:020000040800F2
:10000000301200205D0200083F110008B310000804
:100010003D11000869030008B91400080000000041
:100020000000000000000000000000009D0100082A
:100030006B03000800000000F901000841110008EE
:1000400077020008770200087702000877020008AC
:10005000770200087702000877020008770200089C
:10006000770200087702000877020008770200088C
:10007000770200087702000877020008770200087C
:10008000770200087702000877020008770200086C
:10009000770200087702000877020008770200085C
:1000A000770200087702000877020008770200084C
:1000B000770200087702000877020008770200083C
:1000C000770200087702000877020008770200082C
:1000D000770200087514000877020008770200080C
:1000E000770200087702000877020008770200080C
:1000F00077020008770200087702000877020008FC
:1001000077020008770200087702000877020008EB
:1001100077020008770200087702000877020008DB
:1001200077020008770200087702000877020008CB
:1001300077020008770200087702000877020008BB
:1001400077020008770200087702000877020008AB
:10015000770200087702000877020008770200089B
:10016000770200087702000877020008770200088B
:1001700077020008770200087702000800000000FC
:100180007702000877020008DFF80CD000F0DAF8F8
:1001900000480047BD160008301200202C4B19689B
:1001A0000868B0E8F04F80F30988BFF36F8F4FF015
:1001B000000080F3118870470000000008480068C4
:1001C000006880F308884FF0000080F3148862B65E
:1001D00061B6BFF34F8FBFF36F8F00DF00BF00BF6B
:1001E00008ED00E0DFF80C00016841F470010160E7
:1001F000704700BF88ED00E0EFF30980BFF36F8F19
:10020000134B1A681EF0100F08BF20ED108A20E96A
:10021000F04F106009B44FF0500080F31188BFF325
:100220004F8FBFF36F8F01F059FE4FF0000080F346
:10023000118809BC19680868B0E8F04F1EF0100F6B
:1002400008BFB0EC108A80F30988BFF36F8F704746
:1002500028000020EFF30580704700000648804723
:1002600006480047FEE7FEE7FEE7FEE7FEE7FEE79B
:10027000FEE7FEE7FEE7FEE701120008890100083D
:100280002DE9F05F0546002092469B4688460646CB
:10029000814640241BE0284641464746224600F05E
:1002A00041F853465A46C01A914110D31146184698
:1002B000224600F028F82D1A67EB01084F46224627
:1002C0000120002100F01FF817EB00094E41201E0D
:1002D000A4F10104DFDC484631462A464346BDE826
:1002E000F09FD2B201E000F8012B491EFBD270470B
:1002F0000022F6E710B513460A4604461946FFF7F2
:10030000F0FF204610BD202A04DB203A00FA02F15B
:10031000002070479140C2F1200320FA03F31943F3
:1003200090407047202A04DB203A21FA02F0002195
:10033000704721FA02F3D040C2F1200291400843F5
:1003400019467047064C074D06E0E06840F001038F
:1003500094E8070098471034AC42F6D3FFF718FF33
:100360001C2300083C230008FEE770472DE9F041FC
:100370000446876D00F058F9064694F835000025CC
:10038000022806D08020606584F834500120BDE842
:10039000F0812068016821F0160101602068416940
:1003A00021F080014161206C08B9A06C20B1206867
:1003B000016821F0080101602068016821F0010155
:1003C00001600CE000F030F9801B052807D92020DF
:1003D0006065032084F8350084F83450D7E720683E
:1003E0000068C007EED194F85C103F208840B860E8
:1003F000012084F8350084F834500020C7E790F8D5
:100400003510022903D08021416501207047052164
:1004100080F835100068016821F0010101600020BA
:10042000704700002DE9F84FDFF8BCA1002201253C
:100430000AF1040B03264FF00F090BF1040E00BF65
:100440000B6805FA02F42340A34270D10F7907F03C
:100450000307012F01D0022F16D187684FEA420807
:1004600006FA08FC27EA0C07D1F80CC00CFA08FCC5
:100470004CEA070CC0F808C04768A7430C79C4F3DE
:10048000001494403C4344600C79E443A4070AD030
:10049000C4684FEA420C06FA0CF7BC438F6807FAAF
:1004A0000CF72743C7600C7904F00304022C12D127
:1004B000D40800EB840CDCF820405707FF0E09FA43
:1004C00007F824EA0804D1F8108008FA07F848EA87
:1004D0000408CCF8208004684FEA420C06FA0CF7B6
:1004E000BC430F7907F0030707FA0CF727430760AF
:1004F0004C6814F4403F70D03C4C276847F4804768
:100500002760246822F0030704F480440094384CE8
:1005100007EB040CDCF8084897074FEA177809FA4C
:1005200008F7BC43334FB84202D1002724E054E01F
:10053000314FB84201D101271EE0304FB84201D1FE
:10054000022719E02E4FB84201D1032714E02D4FA6
:10055000B84201D104270FE02B4FB84201D1052743
:100560000AE02A4FB84201D1062705E0284FB842D9
:1005700001D1072700E0082707FA08F72743CCF83E
:100580000878DAF800405746D1F804C09C435FEA87
:10059000CC3C00D51C433C60DBF800405F46D1F802
:1005A00004C09C435FEA8C3C00D51C433C60DEF8F1
:1005B00000407746D1F804C09C435FEACC2C00D5BC
:1005C0001C433C60084F0C373C68D1F804C09C4386
:1005D0005FEA8C2C00D51C433C60521C102AFFF4AF
:1005E0002FAFBDE8F88F0000003C014044380240C6
:1005F00000300140000002400004024000080240B8
:10060000000C02400010024000140240001802409A
:10061000001C02400069084000D0012070470AB168
:10062000816170470904FBE701488068704700005A
:10063000180000200B4810B5016841F400710160FA
:10064000016841F480610160016841F480710160DA
:10065000032000F06FF8002000F006F800F024F806
:10066000002010BD003C024070B50D4D04464FF413
:100670007A712878B1FBF0F00A490968B1FBF0F013
:1006800000F00AFB48B9102C07D200222146501E68
:1006900000F030F800206C6070BD012070BD0000DB
:1006A00018000020240000200A4808B5016841F421
:1006B00080410160006800F4804000900548001F00
:1006C000016841F080510160006800F080500090A6
:1006D00008BD000044380240002809DB00F01F027A
:1006E000012191404009800000F1E020C0F8001194
:1006F00070470000F0B40E4B1B680C46C3F3022396
:10070000C3F10705042D00D90425191D072901D2BD
:10071000002300E0DB1E012606FA05F1491E2140F8
:1007200099409E40761E16403143F0BC00F0CEBE8C
:100730000CED00E0064900F0070208684FF6FF03E1
:10074000184040EA0220034A104308607047000046
:100750000CED00E00000FA052DE9F0470E4605001B
:1007600065D0DFF81481D8F80000F7B200F0070078
:10077000B04207D288F80070D8F8000000F00700F7
:10078000B04254D128683D4C810712D5400703D5AB
:10079000206840F4E05020602878000703D52068E6
:1007A00040F4604020602068A96820F0F000084311
:1007B00020602878C0072DD03049686808390128A2
:1007C00012D0022813D0032811D009688907002904
:1007D0002DDA216821F0030101432160FFF724FF96
:1007E000814641F2883A0EE009688903EFE709681B
:1007F0008901ECE7FFF718FFA0EB0901514502D989
:100800000320BDE8F0872068696800F00C00B0EBB9
:10081000810FEFD1D8F80010404601F00701B14236
:1008200007D90770006800F00700B04201D001202E
:10083000E7E72878400705D52068E96820F4E0500C
:10084000084320602878000706D52068296920F42D
:10085000604040EAC100206000F038F82168084A92
:10086000C1F30311515CC84006490860064800689E
:10087000FFF7FAFE0020C4E7003C024008380240BF
:1008800004230008240000201C000020044805491F
:1008900000680968044AC1F38221515CC84070476E
:1008A00024000020083802401423000804480549A9
:1008B00000680968044AC1F34231515CC84070477E
:1008C000240000200838024014230008154810B501
:1008D000006810F00C02144813D04110042A0FD005
:1008E000082A0ED10F4C241F2268236802F03F0211
:1008F0005B0207D52068C0F38810A0FB010106E069
:10090000084610BD2168C1F38811A1FB0001002336
:10091000FFF7B6FC2168C1F30141491C4900B0FB57
:10092000F1F010BD083802400024F4002DE9F84F22
:1009300004006ED02078DFF84C93C007A9F10405BD
:100940004AD009F104000168C1F38101012908D0EE
:100950000068C0F3810002280AD1D9F800004002E3
:1009600006D52868800337D560680028E1D033E0D9
:100970006068B0F5803F10D0B0F5A02F286810D087
:1009800020F480302860286820F480202860606887
:10099000A8B1FFF749FE06460DE0286840F4803014
:1009A000F4E740F480202860F7E700BFFFF73CFE43
:1009B000801B642873D828688003F7D50CE0FFF704
:1009C00033FE064605E000BFFFF72EFE801B6428BD
:1009D000F0D828688003F7D42078DFF8AC8280074D
:1009E0004FF0000A3ED5A748001D016811F00C0F1A
:1009F00008D00068C0F3810002280BD1D9F80000AC
:100A0000400207D42868800716D5E068012800D185
:100A100012E033E1E068B8B10120C8F80000FFF748
:100A200003FE064605E000BFFFF7FEFD801B02281F
:100A3000C0D828688007F7D52868216920F0F80019
:100A400040EAC10028600DE0C8F800A0FFF7ECFD07
:100A5000064604E0FFF7E8FD801B02281FD828683F
:100A60008007F7D42078000722D5864F8748616930
:100A7000703771B101210160FFF7D6FD064604E031
:100A8000FFF7D2FD801B022809D838688007F7D508
:100A90000EE0C0F800A0FFF7C7FD064605E082E0C3
:100AA000FFF7C2FD801B02287DD838688007F7D485
:100AB0002078400768D5DFF8CCB100270BF13C0B5C
:100AC000DBF80000C0000BD4DBF8001041F08051CF
:100AD000CBF80010DBF80000012700F080500090F8
:100AE0006B4E3068C00510D4306840F480703060C0
:100AF000FFF79AFD009005E0FFF796FD0099401A78
:100B0000022850D83068C005F6D55E4EA0686C3615
:100B100001280FD00528306810D020F00100306087
:100B2000306820F004003060A068B8B1FFF77CFDA9
:100B300000900FE0306840F00100F4E740F004005E
:100B40003060F7E7FFF770FD0099411A41F28830F5
:100B5000814266D830688007F4D50EE0FFF764FD67
:100B6000009007E0FFF760FD0099411A41F28830DC
:100B7000814256D830688007F4D42FB1DBF80010DA
:100B800021F08051CBF80010A069C8B33D49091D80
:100B90000968C1F3810102294AD00228504607D0D2
:100BA000C8F8600000E03CE0FFF73EFD04463BE093
:100BB0004746C8F86000FFF737FD064605E000BF6E
:100BC000FFF732FD801B02282BD828688001F7D45C
:100BD000D4E907010843A16A2E4A490802EB014102
:100BE000626A41EA8211084394F82C1040EA0161DC
:100BF000C9F8001001203866FFF716FD044606E02C
:100C00003EE000BFFFF710FD001B022809D828684E
:100C10008001F7D534E000BFFFF706FD001B022876
:100C200002D90320BDE8F88F28688001F4D427E0BA
:100C30000128F7D0D9F80000E26900F48001914260
:100C40001CD1226A00F03F01914217D147F6C071D2
:100C5000626A0140B1EB821F10D1A26A4FF0FF33EC
:100C600000F4403103EB5202B1EB024F06D194F88D
:100C70002C1000F07060B0EB016F01D00120D1E7C3
:100C80000020CFE70438024000004742800E474270
:100C9000007000400000FFFF10B5401EB0F1807FE3
:100CA00001D3012010BD4FF0E02460610F216017D7
:100CB00000F00CFC0020A06107202061002010BD86
:100CC0007047704710F83D1F407808437047000098
:100CD000F8B5016804460868CA684B6910F00F0F40
:100CE0004FF0000559D003F0010602F49077374326
:100CF00065D0C10705D0D10503D5216C41F00101B4
:100D00002164410705D5D90703D0216C41F00201C8
:100D10002164810705D5D90703D0216C41F0040176
:100D20002164010707D502F02001314303D0216C73
:100D300041F008012164216C00293AD0800604D5D5
:100D4000900602D5204600F092FA20684069216C96
:100D5000C0F38010090700D460B3204600F060FAA9
:100D600020684069400621D52068143050E8001FF3
:100D700021F0400140E80012002AF5D1A06BA8B193
:100D80006C490165A06BFFF73AFB002811D0A06BFE
:100D9000016D01B0BDE8F040084783060FD593060A
:100DA0000DD52046BDE8F84000F061BA2046FFF7B7
:100DB00088FFF8BD2046FFF784FF2564F8BD266B49
:100DC0002023012E79D1C60677D5D60675D50868B9
:100DD000486800904869400640D5A16B08684068A3
:100DE0000004000CEAD0A28D8242E7D9E085C869F0
:100DF000B0F5807F2DD020680C3050E8001F21F422
:100E0000807140E80012002AF5D12068143050E8C3
:100E1000001F21F0010140E80012002AF5D12068EE
:100E2000143050E8001F21F0400140E80012002A71
:100E3000F5D184F83E30256320680C3050E8001F5F
:100E400021F0100140E80012002AF5D1A06BFFF755
:100E50008DFAA08DE18D401A81B229E0A08DE18D3F
:100E6000401A81B2E08D0028A8D00029A6D02068C1
:100E70000C3050E8002F22F4907240E80026002E3B
:100E8000F5D12068143050E8002F22F0010240E82C
:100E90000026002EF5D184F83E30256320680C3002
:100EA00050E8002F22F0100240E80023002BF5D17B
:100EB0002046FFF705FFF8BDFFE705062BD5150611
:100EC00029D594F83D002128F5D1A068B0F5805FC0
:100ED00001D12069B0B1206A411C216221680078EB
:100EE0004860E08C401E0004000CE084E3D12068E0
:100EF000C16821F08001C1602068C16841F04001F3
:100F0000C160D8E7206A0088C0F308004860206A02
:100F1000801C2062E5E74006CDD55006CBD5CA68D7
:100F2000204622F04002CA6084F83D3000F0C0F84C
:100F3000C1E700001112000870B5040004D094F855
:100F40003D00002510B106E0012070BD84F83C5042
:100F5000204600F023F8242084F83D002068C16872
:100F600021F40051C160204600F0E2F920680169D7
:100F700021F4904101612068416921F02A01416119
:100F80002068C16841F40051C1602564202084F8C4
:100F90003D0084F83E00002070BD000030B50068C0
:100FA0001F4987B0884238D11E48016841F01001BE
:100FB0000160006800F0100005901A4814380168BC
:100FC00041F001010160016801F001010591016832
:100FD00041F0010101600068012100F0010005906D
:100FE0004FF4007000900220CDE901010724CDE903
:100FF00003040D4D69462846FFF714FA28150090A2
:10100000694604942846FFF70DFA2520FFF764FB94
:10101000032211462520FFF76DFB07B030BD00000D
:1010200000100140443802400000024090F83E3079
:10103000202B0ED159B152B190F83C30012B08D081
:10104000012380F83C300023036300F0F7B901204E
:10105000704702207047000030B50068114988428F
:101060000CD1114841880A0408D402464C04127875
:101070004FF0000306D50A2A01D0438030BD41F469
:1010800000410DE00D2A09D0C1F30D04074D491CA4
:1010900089B22A554180C729EFD830BD41F480413B
:1010A000418030BD0010014010000020580C00208D
:1010B0007047FEE770B586B014216846FFF718F94F
:1010C0001B480024016841F010010160016801F033
:1010D00010010591016841F080010160016801F093
:1010E00080010591016841F0010101600068114E25
:1010F00000F001000590002240213046FFF78FFAF2
:10110000012280213046FFF78AFA182001258DE858
:10111000310069460848FFF785F9C0200090CDE905
:101120000154694630460394FFF77CF906B070BD60
:10113000303802400000024000100240FEE7FEE7A7
:1011400010B5502080F31188BFF34F8FBFF36F8F1E
:1011500000F0A6FF18B104494FF08050086000204D
:1011600080F3118810BD000004ED00E030B593B0AD
:1011700030216846FFF7BCF814210CA8FFF7B8F837
:101180001D480025016841F080510160006800F0B1
:10119000805011901948016841F480410160006855
:1011A000022400F48040119001200090000401907E
:1011B0008001CDE9064008AA0420A82182E8130096
:1011C0000B906846FFF7B2FB08B172B6FEE70CA9B8
:1011D0000F2081E831004FF4A0500F904FF4805061
:1011E000109005210CA8FFF7B7FA002801D072B6BD
:1011F000FEE713B030BD00004038024000700040F0
:101200000248016841F470010160704788ED00E018
:1012100010B5806B0021C185C184FFF752FD10BD60
:1012200001680C3151E8002F22F4907241E800234C
:10123000002BF5D10168143151E8002F22F0010292
:1012400041E80023002BF5D1016B012909D1016888
:101250000C3151E8002F22F0100241E80023002B4E
:10126000F5D1202180F83E1000210163704708B5B8
:1012700090F83E10222901D0022008BD82684FF468
:1012800080539A4201D1016921B1816A9A421BD0EF
:101290004AB10AE00268816A5268C2F308020A8011
:1012A000816A891C08E0026972B10268526802F022
:1012B0007F020A70816A491C8162C18D491E09043E
:1012C000090CC18503D019E002685268F1E7016892
:1012D000CA6822F02002CA600168CA6822F48072DB
:1012E000CA6001684A6922F001024A61202180F83F
:1012F0003E10016B012903D0FFF7AEFE002008BDB0
:101300000021016301680C3151E8002F22F0100226
:1013100041E80023002BF5D101680A68D20602D506
:101320000A6849680091818DFFF7CAFCE6E7000072
:1013300070B5044600680169E26821F44051114328
:1013400001612169A068E2690843616911430843AA
:101350002168CA6849F20C639A430243CA60206854
:101360004169A26921F4407111434161314920680A
:10137000884202D03049884202D1FFF797FA01E053
:10138000FFF784FAE2690023192164253226B2F5B9
:10139000004F626828D0A0FB0101930F9200FEF776
:1013A0006FFF0146B0FBF5F06FF01802504301EB00
:1013B000800006EB0010B0FBF5F000F0F002B1FB8E
:1013C000F5F002EB0012B1FBF5F06FF01803584393
:1013D00001EB800006EB0010B0FBF5F000F00F0011
:1013E00021681044886070BDA0FB010192185B4128
:1013F000FEF746FF0146B0FBF5F00201B1FBF5F048
:101400006FF01803584301EB800006EBC000B0FBFF
:10141000F5F000F0F80002EB4002B1FBF5F05843A4
:1014200001EB800006EBC000B0FBF5F000F0070018
:10143000D6E700000010014000140140816282855F
:10144000C28500210164222280F83E2080F83C10F1
:101450000168CA6842F48072CA6001684A6942F051
:1014600001024A610068C16841F02001C1600020AA
:101470007047000070B500240C4D0D48FFF728FCA4
:1014800002E0641CAC4204D80948FFF71BFC20288A
:10149000F7D1002402E0641CAC4206D801220549C1
:1014A0000348FFF7C3FD0028F5D170BDFFFF010021
:1014B000200D002010000020FEE70000014A024934
:1014C00000F023B899150008140000200907090E40
:1014D000002804DB00F1E02080F80014704700F0E1
:1014E0000F0000F1E02080F8141D704702E008C8EA
:1014F000121F08C1002AFAD170477047002001E08E
:1015000001C1121F002AFBD170472DE9F041164698
:101510000F460446002503E03946B047641C6D1CA5
:1015200020780028F8D12846BDE8F081412170B527
:10153000B0FBF1F2B0FBF1F501FB12044FF6E856F7
:1015400003E0304600F00EF86D1E002DF9D1002C9E
:1015500006D04FF47A706043BDE8704000F002B8E6
:1015600070BD000070B54FF0E024002265690949A4
:10157000A36909684843A1699942FCD002D2A3EB50
:10158000010302E0A5EB010633441A440B468242F4
:10159000F1D370BD9000002003490A685206FCD5C3
:1015A000C2B24A6070470000001001400EB5094AFF
:1015B0000120A2F500718DE807000023802206A11A
:1015C000084800F033FD08490860BDE80E4000F00F
:1015D0004BBC00009802002073746172745F7461E8
:1015E000736B0000511A000800000020F0B513488A
:1015F00087B00024016841F010010160016801F02A
:1016000010010591016841F0800101600068012529
:1016100000F080000590102002268DE87100084F30
:1016200069463846FEF7FEFE08208DE871006946DF
:101630003846FEF7F7FE07B0F0BD00003038024034
:10164000001002402DE9F04100241A4D1A4E0127E6
:1016500008B12F7001E0287848B110213046FEF71C
:10166000D9FF58B108213046FEF7D4FF30B1102120
:101670003046FEF7CFFF012812D018E00A20FFF70E
:1016800055FF0020287010213046FEF7C3FF00B937
:10169000012408213046FEF7BDFF40B9022406E0D0
:1016A00008213046FEF7B6FF012800D12F702046F2
:1016B000BDE8F081940000200010024010B5FEF754
:1016C000B9FFFFF753FDFFF7F5FC4FF4E13000F0F1
:1016D00069FAFFF78BFFFFF769FF002010BD0000DC
:1016E0002DE9F0411E4C0F460546E6682068001DB6
:1016F00000F074FA38B9206890F82C100120884066
:10170000216981432161681C15D1A7B1154922685F
:101710004868906023688268DA6022688368121DD6
:101720005A602268121D8260206841610868401C6E
:101730000860BDE8F08120683544B5424560216805
:1017400005D2E06BBDE8F041091D00F073BAA06B53
:10175000091D00F06FFAA06A8542EAD2A562E8E7A7
:1017600028000020180E00202DE9F041054600F069
:1017700085FA364CA068401CA0602068344F10B138
:10178000606940B32DE02560A068012829D10026BA
:1017900006EB860007EB800000F03EFA761C052E73
:1017A000F6D32B48643000F037FA2948783000F03F
:1017B00033FA27488C3000F02FFA2548A03000F08B
:1017C0002BFA2348B43000F027FA21486430A06394
:1017D0001430E06305E02068E96AC06A884200D8F6
:1017E0002560606A401C60622864E96A0120226901
:1017F00088401043206101EB810007EB80004068C6
:10180000A8608168E9608268291D51608160E86A8A
:1018100000EB800007EB8001696157F82010491C3C
:1018200047F8201000F04AFA606900280CD02068C0
:10183000E96AC06A884207D206494FF080500860C2
:10184000BFF34F8FBFF36F8FBDE8F08128000020FA
:10185000640D002004ED00E010B5044690F855003A
:1018600058B101280CD002280FD0502080F31188E5
:10187000BFF34F8FBFF36F8FFEE7206B00F032FA9C
:101880002046BDE8104000F02DBA10BD144E154C96
:10189000A6F1A0074FF08058DFF84C9012E000BF8F
:1018A00000F0ECF9F068C568281D00F097F9A06811
:1018B000401EA0606068401E606000F0FFF928468E
:1018C000FFF7CAFF60680028EAD138680128F9D913
:1018D000C9F80080BFF34F8FBFF36F8FF2E70000AE
:1018E000040E00202800002004ED00E02DE9F04760
:1018F0000D46DDE909841746824691009946089E07
:10190000A522206BFEF7EDFC6FF00301206B01EBCD
:101910008701084420F00707780707D0502080F39C
:101920001188BFF34F8FBFF36F8FFEE765B10020C3
:101930002218295C82F83410295C11B1401C0A2855
:10194000F6D3002084F83D00052E07D3502080F305
:101950001188BFF34F8FBFF36F8FFEE7E662201D44
:10196000A66400F064F904F1180000F060F9246145
:10197000C6F105006462A0614A465146384600F04F
:1019800051F82060B8F1000F01D0C8F80040BDE860
:10199000F087000030B5114900E011460A68824224
:1019A000FBD34B685C18844203D1406818444860FC
:1019B000084643681C18944209D1084C143C24681A
:1019C000A24209D052681A4442600A681268026052
:1019D000814200D0086030BD0460F9E78800002033
:1019E0000548816B096821B1816BC968096881620A
:1019F00070474FF0FF31FAE72800002008484068A0
:101A0000401C4FF0500080F3118804D0BFF34F8F7B
:101A1000BFF36F8FFEE7BFF34F8FBFF36F8FFEE70C
:101A20006800002010B5031F4FF080741C601B1F5E
:101A300021F001011960191F044B0B6014390A6071
:101A4000091F6FF0020244380A6010BDFD1900083A
:101A50003EB5164A0220A2F500718DE8070000236A
:101A6000802213A1144800F0E1FA144C144A002318
:101A70006060A2F5007103208DE80700802211A1AB
:101A8000124800F0D3FA124AA060A2F500710420B7
:101A90008DE80700002380220EA1104800F0C6FA4E
:101AA000E0602068BDE83E4000F086B9F004002008
:101AB0007461736B31000000E11A0008000000201F
:101AC000480700207461736B320000001D1B000882
:101AD000A00900207461736B33000000491B0008EB
:101AE0000B4D4FF4FA740BA0FFF7E8FC01224021E4
:101AF0002846FEF794FD204600F038F900224021E8
:101B00002846FEF78CFD204600F030F9EBE7000098
:101B1000000002406E6968616F000000094D4FF4DB
:101B2000FA74012280212846FEF779FD204600F054
:101B30001DF9002280212846FEF771FD204600F0A5
:101B400015F9EEE7000002400B4C00250BA0FFF753
:101B5000B5FC0020FFF776FD012808D1606830B1A0
:101B60000CA0FFF7ABFC606800F026F965600A2066
:101B700000F0FCF8EAE70000000000207461736BDD
:101B800033D5FDD4DAD4CBD0D0A3A1A3A1A3A10D8A
:101B90000A000000C9BEB3FD7461736B31C8CECEBC
:101BA000F10D0A000B4910B5094AC1E900200020D7
:101BB0008860C860086188610C2048610846FFF7AA
:101BC000BBF9BDE81040012203490248FFF72EBAD5
:101BD00000100140200D002010000020D0E901324B
:101BE00001699A60D0E901235A604A68824201D1B2
:101BF00082684A60002202610868401E0860086826
:101C000070470000034B036003F158000860822016
:101C100010607047F809002000F108014FF0FF3212
:101C2000C0E90112C160016100210160704700211B
:101C30000161704730B50B685A1C02D000F10802F0
:101C400002E0026904E02246546825689D42FAD900
:101C500053684B6099608A60516008610168491C53
:101C6000016030BD42684A6093688B609368596038
:101C7000916008610168491C01607047502080F341
:101C80001188BFF34F8FBFF36F8F0A494868401C1C
:101C9000486001280CD10848006810F0FF0F07D0F9
:101CA000502080F31188BFF34F8FBFF36F8FFEE793
:101CB000704700006800002004ED00E00849486813
:101CC00028B1401E486001D180F311887047502030
:101CD00080F31188BFF34F8FBFF36F8FFEE70000D3
:101CE0006800002070B500282AD0A0F108046068C0
:101CF000002807DB502080F31188BFF34F8FBFF31C
:101D00006F8FFEE7216839B1502080F31188BFF34F
:101D10004F8FBFF36F8FFEE720F00040606000F050
:101D2000D5F8084D60686968084468602046FFF788
:101D300031FE2869401C2861BDE8704000F04CBAB3
:101D400070BD0000740000204FF0E0200021016110
:101D5000816105494FF47A720968B1FBF2F1491EBD
:101D600041610721016170472400002010B5020085
:101D700014D00F48406B38B1502080F31188BFF366
:101D80004F8FBFF36F8FFEE700F0A0F800211046E1
:101D9000FFF7A6FC00F020FA002807D105494FF014
:101DA00080500860BFF34F8FBFF36F8F10BD0000EE
:101DB0002800002004ED00E070B50546FFF75EFF47
:101DC000264C05B92568281DFFF708FF58B9E86AB1
:101DD000234A00EB800152F8211021B901218140F2
:101DE000206988432061A86A18B105F11800FFF73F
:101DF000F5FE606A401C60622068854208D1184880
:101E0000291DA030FFF72EFF6068401C606004E0D1
:101E1000A068401EA060FFF7E3FDFFF74FFF2068BA
:101E2000854202D02846FFF717FD6069002814D0CC
:101E30002068854211D1606B38B1502080F3118841
:101E4000BFF34F8FBFF36F8FFEE706494FF080500F
:101E50000860BFF34F8FBFF36F8F70BD2800002065
:101E6000640D002004ED00E030B587B00024039439
:101E700005AA04A903A80494FFF7C4FEDDE9030141
:101E80000094CDE9011000230CA10E48059A00F042
:101E9000CDF80D4DE86270B1502080F31188BFF38A
:101EA0004F8FBFF36F8F4FF0FF30A8620120686142
:101EB000EC6000F041F8286B07B030BD49444C4558
:101EC000000000008D180008280000200248416B27
:101ED000491C416370470000280000201448416BF2
:101EE00011B10121C16170470021C1610169B1FADD
:101EF00081F1C1F11F0101EB81020E4951F822303D
:101F00006BB101EB820101F108034A6852684A6033
:101F10009A4201D152684A60D168016070475020EE
:101F200080F31188BFF34F8FBFF36F8FFEE7000080
:101F300028000020640D00201CB537480168374A8E
:101F4000914207D1502080F31188BFF34F8FBFF328
:101F50006F8FFEE700683149491E884207D1502043
:101F600080F31188BFF34F8FBFF36F8FFEE72C49CB
:101F700008780190FF20087008788DF800009DF81F
:101F800000009DF8002000F0F000904207D05020A3
:101F900080F31188BFF34F8FBFF36F8FFEE79DF87B
:101FA0000000204C00F0500020700720A06005E0E9
:101FB0009DF8002052008DF80020401E9DF8002062
:101FC0001206F5D4A060032807D0502080F31188B2
:101FD000BFF34F8FBFF36F8FFEE74FF44070A060E9
:101FE000019808700C482030016841F470010160CC
:101FF000016841F070410160FFF7A6FE00206060BB
:10200000FEF7F0F80848016841F040410160FEF732
:10201000D5F800201CBD000000ED00E071C20F41AA
:1020200000E400E06800002034EF00E02DE9F04714
:1020300086B01F46DDE90F540E9E904689468246C3
:10204000EDB124B35820014600902046FEF750F928
:102050000220256384F855000020039004A900960F
:10206000CDE901143B46424649465046FFF73EFC47
:102070002046FFF779FB049806B0BDE8F0875020B2
:1020800080F31188BFF34F8FBFF36F8FFEE75020AF
:1020900080F31188BFF34F8FBFF36F8FFEE700000F
:1020A0002DE9F0414A4C0026606B28B1A069401C24
:1020B000A0613046BDE8F081E5686D1CE56013D194
:1020C000A06B006838B1502080F31188BFF34F8FA8
:1020D000BFF36F8FFEE7A06BE16BA163E063206A43
:1020E000401C2062FFF77CFCA16A3A488D420FD366
:1020F0004FF0000EA16B096839B1A16BC968C968BE
:102100004A68954212D2A26202E04FF0FF31A1620A
:102110002168C96A01EB810150F82100012800D92A
:102120000126E0690028C4D00126C2E7D1E9027285
:102130004B69BA60D1E902277A605F680A1D97424D
:1021400001D1CF685F60C1F814E01F687F1E1F6077
:10215000D1F828C0BCF1000F15D0D1E907379F6036
:10216000D1E907377B60DCF8047001F118039F4266
:1021700002D10B6ACCF80430C1F828E0DCF800305A
:102180005B1ECCF80030CB6A0127D4F810C09F400A
:1021900047EA0C07276103EB830300EB83035B68CB
:1021A0008B609F68CF609F687A609A60CA6A02EB12
:1021B000820200EB82034B6150F822305B1C40F836
:1021C0002230C96A2268D26A914293D9012691E7E6
:1021D00028000020640D00202DE9F041464D002428
:1021E0002746686B38B1FFF749FD686B401E68638E
:1021F000686B40B17AE0502080F31188BFF34F8FB5
:10220000BFF36F8FFEE7A8683C4B00264FF0010834
:10221000F0BB6BE0D868C468D4E90721A06A91607C
:10222000D4E907125160426804F118018A4201D1D1
:10223000216A4160A6620168491E0160D4E9022159
:1022400060699160D4E9021251604268211D8A429E
:1022500001D1E268426066610268521E0260E26A71
:10226000D5F810C008FA02F040EA0C00286102EB31
:102270008200224A8C3A02EB80004068A060D0F8CD
:1022800008C0C4F80CC0D0F808C0CCF8041000E0B6
:1022900012E08160E06A00EB800002EB8001616186
:1022A00052F82010491C42F82010E06A2968C96AD7
:1022B000884201D3C5F81C8018680028AAD10CB147
:1022C000FFF78EFBAC693CB1FFF7EAFE08B1C5F839
:1022D0001C80641EF8D1AE61E86938B10849012755
:1022E00038070860BFF34F8FBFF36F8FFFF7E6FC2F
:1022F0003846BDE8F081000028000020F00D0020E5
:1023000004ED00E0000000000000000001020304F2
:102310000607080900000000010203043C2300082E
:102320000000002098000000EC140008D4230008EE
:102330009800002098110000FC1400080000000024
:10234000000000000000000000000000000000008D
:10235000000000000100000010000000000000006C
:102360000024F40000000000000000000000000055
:10237000000000000000000000000000000000005D
:10238000000000000000000000000000000000004D
:102390000000000004000000000000000000000039
:1023A0000000000000000000AAAAAAAA0000000085
:1023B000000000000000000000000000000000001D
:1023C000000000000000000000000000000000000D
:0423D0000100000008
:040000050800018965
:00000001FF
